{
	"contracts/storage-factory-project/SimpleStorage.sol": {
		"SimpleStorage": {
			"abi": [
				{
					"inputs": [],
					"name": "add",
					"outputs": [
						{
							"internalType": "uint256",
							"name": "",
							"type": "uint256"
						}
					],
					"stateMutability": "pure",
					"type": "function"
				},
				{
					"inputs": [],
					"name": "favNumber",
					"outputs": [
						{
							"internalType": "uint256",
							"name": "",
							"type": "uint256"
						}
					],
					"stateMutability": "view",
					"type": "function"
				},
				{
					"inputs": [],
					"name": "retriveFavNumber",
					"outputs": [
						{
							"internalType": "uint256",
							"name": "",
							"type": "uint256"
						}
					],
					"stateMutability": "view",
					"type": "function"
				},
				{
					"inputs": [
						{
							"internalType": "uint256",
							"name": "_newValue",
							"type": "uint256"
						}
					],
					"name": "store",
					"outputs": [],
					"stateMutability": "nonpayable",
					"type": "function"
				}
			],
			"devdoc": {
				"kind": "dev",
				"methods": {},
				"version": 1
			},
			"evm": {
				"assembly": "    /* \"contracts/storage-factory-project/SimpleStorage.sol\":60:420  contract SimpleStorage{... */\n  mstore(0x40, 0x80)\n  callvalue\n  dup1\n  iszero\n  tag_1\n  jumpi\n  0x00\n  dup1\n  revert\ntag_1:\n  pop\n  dataSize(sub_0)\n  dup1\n  dataOffset(sub_0)\n  0x00\n  codecopy\n  0x00\n  return\nstop\n\nsub_0: assembly {\n        /* \"contracts/storage-factory-project/SimpleStorage.sol\":60:420  contract SimpleStorage{... */\n      mstore(0x40, 0x80)\n      callvalue\n      dup1\n      iszero\n      tag_1\n      jumpi\n      0x00\n      dup1\n      revert\n    tag_1:\n      pop\n      jumpi(tag_2, lt(calldatasize, 0x04))\n      shr(0xe0, calldataload(0x00))\n      dup1\n      0x4f2be91f\n      eq\n      tag_3\n      jumpi\n      dup1\n      0x6057361d\n      eq\n      tag_4\n      jumpi\n      dup1\n      0xc7a0d9f6\n      eq\n      tag_5\n      jumpi\n      dup1\n      0xd0f50ead\n      eq\n      tag_6\n      jumpi\n    tag_2:\n      0x00\n      dup1\n      revert\n        /* \"contracts/storage-factory-project/SimpleStorage.sol\":339:415  function add() public pure returns(uint256){... */\n    tag_3:\n      tag_7\n      tag_8\n      jump\t// in\n    tag_7:\n      mload(0x40)\n      tag_9\n      swap2\n      swap1\n      tag_10\n      jump\t// in\n    tag_9:\n      mload(0x40)\n      dup1\n      swap2\n      sub\n      swap1\n      return\n        /* \"contracts/storage-factory-project/SimpleStorage.sol\":142:232  function store(uint256 _newValue) public{... */\n    tag_4:\n      tag_11\n      0x04\n      dup1\n      calldatasize\n      sub\n      dup2\n      add\n      swap1\n      tag_12\n      swap2\n      swap1\n      tag_13\n      jump\t// in\n    tag_12:\n      tag_14\n      jump\t// in\n    tag_11:\n      stop\n        /* \"contracts/storage-factory-project/SimpleStorage.sol\":91:115  uint256 public favNumber */\n    tag_5:\n      tag_15\n      tag_16\n      jump\t// in\n    tag_15:\n      mload(0x40)\n      tag_17\n      swap2\n      swap1\n      tag_10\n      jump\t// in\n    tag_17:\n      mload(0x40)\n      dup1\n      swap2\n      sub\n      swap1\n      return\n        /* \"contracts/storage-factory-project/SimpleStorage.sol\":240:331  function retriveFavNumber() public view returns(uint256){... */\n    tag_6:\n      tag_18\n      tag_19\n      jump\t// in\n    tag_18:\n      mload(0x40)\n      tag_20\n      swap2\n      swap1\n      tag_10\n      jump\t// in\n    tag_20:\n      mload(0x40)\n      dup1\n      swap2\n      sub\n      swap1\n      return\n        /* \"contracts/storage-factory-project/SimpleStorage.sol\":339:415  function add() public pure returns(uint256){... */\n    tag_8:\n        /* \"contracts/storage-factory-project/SimpleStorage.sol\":374:381  uint256 */\n      0x00\n        /* \"contracts/storage-factory-project/SimpleStorage.sol\":401:406  1 + 1 */\n      0x02\n        /* \"contracts/storage-factory-project/SimpleStorage.sol\":393:407  return (1 + 1) */\n      swap1\n      pop\n        /* \"contracts/storage-factory-project/SimpleStorage.sol\":339:415  function add() public pure returns(uint256){... */\n      swap1\n      jump\t// out\n        /* \"contracts/storage-factory-project/SimpleStorage.sol\":142:232  function store(uint256 _newValue) public{... */\n    tag_14:\n        /* \"contracts/storage-factory-project/SimpleStorage.sol\":205:214  _newValue */\n      dup1\n        /* \"contracts/storage-factory-project/SimpleStorage.sol\":193:202  favNumber */\n      0x00\n        /* \"contracts/storage-factory-project/SimpleStorage.sol\":193:214  favNumber = _newValue */\n      dup2\n      swap1\n      sstore\n      pop\n        /* \"contracts/storage-factory-project/SimpleStorage.sol\":142:232  function store(uint256 _newValue) public{... */\n      pop\n      jump\t// out\n        /* \"contracts/storage-factory-project/SimpleStorage.sol\":91:115  uint256 public favNumber */\n    tag_16:\n      sload(0x00)\n      dup2\n      jump\t// out\n        /* \"contracts/storage-factory-project/SimpleStorage.sol\":240:331  function retriveFavNumber() public view returns(uint256){... */\n    tag_19:\n        /* \"contracts/storage-factory-project/SimpleStorage.sol\":288:295  uint256 */\n      0x00\n        /* \"contracts/storage-factory-project/SimpleStorage.sol\":314:323  favNumber */\n      dup1\n      sload\n        /* \"contracts/storage-factory-project/SimpleStorage.sol\":307:323  return favNumber */\n      swap1\n      pop\n        /* \"contracts/storage-factory-project/SimpleStorage.sol\":240:331  function retriveFavNumber() public view returns(uint256){... */\n      swap1\n      jump\t// out\n        /* \"#utility.yul\":7:84   */\n    tag_24:\n        /* \"#utility.yul\":44:51   */\n      0x00\n        /* \"#utility.yul\":73:78   */\n      dup2\n        /* \"#utility.yul\":62:78   */\n      swap1\n      pop\n        /* \"#utility.yul\":7:84   */\n      swap2\n      swap1\n      pop\n      jump\t// out\n        /* \"#utility.yul\":90:208   */\n    tag_25:\n        /* \"#utility.yul\":177:201   */\n      tag_34\n        /* \"#utility.yul\":195:200   */\n      dup2\n        /* \"#utility.yul\":177:201   */\n      tag_24\n      jump\t// in\n    tag_34:\n        /* \"#utility.yul\":172:175   */\n      dup3\n        /* \"#utility.yul\":165:202   */\n      mstore\n        /* \"#utility.yul\":90:208   */\n      pop\n      pop\n      jump\t// out\n        /* \"#utility.yul\":214:436   */\n    tag_10:\n        /* \"#utility.yul\":307:311   */\n      0x00\n        /* \"#utility.yul\":345:347   */\n      0x20\n        /* \"#utility.yul\":334:343   */\n      dup3\n        /* \"#utility.yul\":330:348   */\n      add\n        /* \"#utility.yul\":322:348   */\n      swap1\n      pop\n        /* \"#utility.yul\":358:429   */\n      tag_36\n        /* \"#utility.yul\":426:427   */\n      0x00\n        /* \"#utility.yul\":415:424   */\n      dup4\n        /* \"#utility.yul\":411:428   */\n      add\n        /* \"#utility.yul\":402:408   */\n      dup5\n        /* \"#utility.yul\":358:429   */\n      tag_25\n      jump\t// in\n    tag_36:\n        /* \"#utility.yul\":214:436   */\n      swap3\n      swap2\n      pop\n      pop\n      jump\t// out\n        /* \"#utility.yul\":523:640   */\n    tag_27:\n        /* \"#utility.yul\":632:633   */\n      0x00\n        /* \"#utility.yul\":629:630   */\n      dup1\n        /* \"#utility.yul\":622:634   */\n      revert\n        /* \"#utility.yul\":769:891   */\n    tag_29:\n        /* \"#utility.yul\":842:866   */\n      tag_41\n        /* \"#utility.yul\":860:865   */\n      dup2\n        /* \"#utility.yul\":842:866   */\n      tag_24\n      jump\t// in\n    tag_41:\n        /* \"#utility.yul\":835:840   */\n      dup2\n        /* \"#utility.yul\":832:867   */\n      eq\n        /* \"#utility.yul\":822:885   */\n      tag_42\n      jumpi\n        /* \"#utility.yul\":881:882   */\n      0x00\n        /* \"#utility.yul\":878:879   */\n      dup1\n        /* \"#utility.yul\":871:883   */\n      revert\n        /* \"#utility.yul\":822:885   */\n    tag_42:\n        /* \"#utility.yul\":769:891   */\n      pop\n      jump\t// out\n        /* \"#utility.yul\":897:1036   */\n    tag_30:\n        /* \"#utility.yul\":943:948   */\n      0x00\n        /* \"#utility.yul\":981:987   */\n      dup2\n        /* \"#utility.yul\":968:988   */\n      calldataload\n        /* \"#utility.yul\":959:988   */\n      swap1\n      pop\n        /* \"#utility.yul\":997:1030   */\n      tag_44\n        /* \"#utility.yul\":1024:1029   */\n      dup2\n        /* \"#utility.yul\":997:1030   */\n      tag_29\n      jump\t// in\n    tag_44:\n        /* \"#utility.yul\":897:1036   */\n      swap3\n      swap2\n      pop\n      pop\n      jump\t// out\n        /* \"#utility.yul\":1042:1371   */\n    tag_13:\n        /* \"#utility.yul\":1101:1107   */\n      0x00\n        /* \"#utility.yul\":1150:1152   */\n      0x20\n        /* \"#utility.yul\":1138:1147   */\n      dup3\n        /* \"#utility.yul\":1129:1136   */\n      dup5\n        /* \"#utility.yul\":1125:1148   */\n      sub\n        /* \"#utility.yul\":1121:1153   */\n      slt\n        /* \"#utility.yul\":1118:1237   */\n      iszero\n      tag_46\n      jumpi\n        /* \"#utility.yul\":1156:1235   */\n      tag_47\n      tag_27\n      jump\t// in\n    tag_47:\n        /* \"#utility.yul\":1118:1237   */\n    tag_46:\n        /* \"#utility.yul\":1276:1277   */\n      0x00\n        /* \"#utility.yul\":1301:1354   */\n      tag_48\n        /* \"#utility.yul\":1346:1353   */\n      dup5\n        /* \"#utility.yul\":1337:1343   */\n      dup3\n        /* \"#utility.yul\":1326:1335   */\n      dup6\n        /* \"#utility.yul\":1322:1344   */\n      add\n        /* \"#utility.yul\":1301:1354   */\n      tag_30\n      jump\t// in\n    tag_48:\n        /* \"#utility.yul\":1291:1354   */\n      swap2\n      pop\n        /* \"#utility.yul\":1247:1364   */\n      pop\n        /* \"#utility.yul\":1042:1371   */\n      swap3\n      swap2\n      pop\n      pop\n      jump\t// out\n\n    auxdata: 0xa264697066735822122012551fcf2e97a72bd81acc5798955a28342ddc0ec94f10417a0e47ff2a37101a64736f6c634300081a0033\n}\n",
				"bytecode": {
					"linkReferences": {},
					"object": "6080604052348015600e575f80fd5b506101a28061001c5f395ff3fe608060405234801561000f575f80fd5b506004361061004a575f3560e01c80634f2be91f1461004e5780636057361d1461006c578063c7a0d9f614610088578063d0f50ead146100a6575b5f80fd5b6100566100c4565b60405161006391906100fa565b60405180910390f35b61008660048036038101906100819190610141565b6100cc565b005b6100906100d5565b60405161009d91906100fa565b60405180910390f35b6100ae6100da565b6040516100bb91906100fa565b60405180910390f35b5f6002905090565b805f8190555050565b5f5481565b5f8054905090565b5f819050919050565b6100f4816100e2565b82525050565b5f60208201905061010d5f8301846100eb565b92915050565b5f80fd5b610120816100e2565b811461012a575f80fd5b50565b5f8135905061013b81610117565b92915050565b5f6020828403121561015657610155610113565b5b5f6101638482850161012d565b9150509291505056fea264697066735822122012551fcf2e97a72bd81acc5798955a28342ddc0ec94f10417a0e47ff2a37101a64736f6c634300081a0033",
					"opcodes": "PUSH1 0x80 PUSH1 0x40 MSTORE CALLVALUE DUP1 ISZERO PUSH1 0xE JUMPI PUSH0 DUP1 REVERT JUMPDEST POP PUSH2 0x1A2 DUP1 PUSH2 0x1C PUSH0 CODECOPY PUSH0 RETURN INVALID PUSH1 0x80 PUSH1 0x40 MSTORE CALLVALUE DUP1 ISZERO PUSH2 0xF JUMPI PUSH0 DUP1 REVERT JUMPDEST POP PUSH1 0x4 CALLDATASIZE LT PUSH2 0x4A JUMPI PUSH0 CALLDATALOAD PUSH1 0xE0 SHR DUP1 PUSH4 0x4F2BE91F EQ PUSH2 0x4E JUMPI DUP1 PUSH4 0x6057361D EQ PUSH2 0x6C JUMPI DUP1 PUSH4 0xC7A0D9F6 EQ PUSH2 0x88 JUMPI DUP1 PUSH4 0xD0F50EAD EQ PUSH2 0xA6 JUMPI JUMPDEST PUSH0 DUP1 REVERT JUMPDEST PUSH2 0x56 PUSH2 0xC4 JUMP JUMPDEST PUSH1 0x40 MLOAD PUSH2 0x63 SWAP2 SWAP1 PUSH2 0xFA JUMP JUMPDEST PUSH1 0x40 MLOAD DUP1 SWAP2 SUB SWAP1 RETURN JUMPDEST PUSH2 0x86 PUSH1 0x4 DUP1 CALLDATASIZE SUB DUP2 ADD SWAP1 PUSH2 0x81 SWAP2 SWAP1 PUSH2 0x141 JUMP JUMPDEST PUSH2 0xCC JUMP JUMPDEST STOP JUMPDEST PUSH2 0x90 PUSH2 0xD5 JUMP JUMPDEST PUSH1 0x40 MLOAD PUSH2 0x9D SWAP2 SWAP1 PUSH2 0xFA JUMP JUMPDEST PUSH1 0x40 MLOAD DUP1 SWAP2 SUB SWAP1 RETURN JUMPDEST PUSH2 0xAE PUSH2 0xDA JUMP JUMPDEST PUSH1 0x40 MLOAD PUSH2 0xBB SWAP2 SWAP1 PUSH2 0xFA JUMP JUMPDEST PUSH1 0x40 MLOAD DUP1 SWAP2 SUB SWAP1 RETURN JUMPDEST PUSH0 PUSH1 0x2 SWAP1 POP SWAP1 JUMP JUMPDEST DUP1 PUSH0 DUP2 SWAP1 SSTORE POP POP JUMP JUMPDEST PUSH0 SLOAD DUP2 JUMP JUMPDEST PUSH0 DUP1 SLOAD SWAP1 POP SWAP1 JUMP JUMPDEST PUSH0 DUP2 SWAP1 POP SWAP2 SWAP1 POP JUMP JUMPDEST PUSH2 0xF4 DUP2 PUSH2 0xE2 JUMP JUMPDEST DUP3 MSTORE POP POP JUMP JUMPDEST PUSH0 PUSH1 0x20 DUP3 ADD SWAP1 POP PUSH2 0x10D PUSH0 DUP4 ADD DUP5 PUSH2 0xEB JUMP JUMPDEST SWAP3 SWAP2 POP POP JUMP JUMPDEST PUSH0 DUP1 REVERT JUMPDEST PUSH2 0x120 DUP2 PUSH2 0xE2 JUMP JUMPDEST DUP2 EQ PUSH2 0x12A JUMPI PUSH0 DUP1 REVERT JUMPDEST POP JUMP JUMPDEST PUSH0 DUP2 CALLDATALOAD SWAP1 POP PUSH2 0x13B DUP2 PUSH2 0x117 JUMP JUMPDEST SWAP3 SWAP2 POP POP JUMP JUMPDEST PUSH0 PUSH1 0x20 DUP3 DUP5 SUB SLT ISZERO PUSH2 0x156 JUMPI PUSH2 0x155 PUSH2 0x113 JUMP JUMPDEST JUMPDEST PUSH0 PUSH2 0x163 DUP5 DUP3 DUP6 ADD PUSH2 0x12D JUMP JUMPDEST SWAP2 POP POP SWAP3 SWAP2 POP POP JUMP INVALID LOG2 PUSH5 0x6970667358 0x22 SLT KECCAK256 SLT SSTORE 0x1F 0xCF 0x2E SWAP8 0xA7 0x2B 0xD8 BYTE 0xCC JUMPI SWAP9 SWAP6 GAS 0x28 CALLVALUE 0x2D 0xDC 0xE 0xC9 0x4F LT COINBASE PUSH27 0xE47FF2A37101A64736F6C634300081A0033000000000000000000 "
				},
				"gasEstimates": {
					"creation": {
						"codeDepositCost": "83600",
						"executionCost": "133",
						"totalCost": "83733"
					},
					"external": {
						"add()": "310",
						"favNumber()": "2446",
						"retriveFavNumber()": "2476",
						"store(uint256)": "22514"
					}
				},
				"methodIdentifiers": {
					"add()": "4f2be91f",
					"favNumber()": "c7a0d9f6",
					"retriveFavNumber()": "d0f50ead",
					"store(uint256)": "6057361d"
				}
			},
			"storageLayout": {
				"storage": [
					{
						"astId": 3,
						"contract": "contracts/storage-factory-project/SimpleStorage.sol:SimpleStorage",
						"label": "favNumber",
						"offset": 0,
						"slot": "0",
						"type": "t_uint256"
					}
				],
				"types": {
					"t_uint256": {
						"encoding": "inplace",
						"label": "uint256",
						"numberOfBytes": "32"
					}
				}
			},
			"userdoc": {
				"kind": "user",
				"methods": {},
				"version": 1
			}
		}
	}
}